{"@openzeppelin/contracts/proxy/transparent/TransparentUpgradeableProxy.sol":{"TransparentUpgradeableProxy":{"abi":[{"inputs":[{"internalType":"address","name":"_logic","type":"address"},{"internalType":"address","name":"admin_","type":"address"},{"internalType":"bytes","name":"_data","type":"bytes"}],"stateMutability":"payable","type":"constructor"},{"anonymous":false,"inputs":[{"indexed":false,"internalType":"address","name":"previousAdmin","type":"address"},{"indexed":false,"internalType":"address","name":"newAdmin","type":"address"}],"name":"AdminChanged","type":"event"},{"anonymous":false,"inputs":[{"indexed":true,"internalType":"address","name":"beacon","type":"address"}],"name":"BeaconUpgraded","type":"event"},{"anonymous":false,"inputs":[{"indexed":true,"internalType":"address","name":"implementation","type":"address"}],"name":"Upgraded","type":"event"},{"stateMutability":"payable","type":"fallback"},{"inputs":[],"name":"admin","outputs":[{"internalType":"address","name":"admin_","type":"address"}],"stateMutability":"nonpayable","type":"function"},{"inputs":[{"internalType":"address","name":"newAdmin","type":"address"}],"name":"changeAdmin","outputs":[],"stateMutability":"nonpayable","type":"function"},{"inputs":[],"name":"implementation","outputs":[{"internalType":"address","name":"implementation_","type":"address"}],"stateMutability":"nonpayable","type":"function"},{"inputs":[{"internalType":"address","name":"newImplementation","type":"address"}],"name":"upgradeTo","outputs":[],"stateMutability":"nonpayable","type":"function"},{"inputs":[{"internalType":"address","name":"newImplementation","type":"address"},{"internalType":"bytes","name":"data","type":"bytes"}],"name":"upgradeToAndCall","outputs":[],"stateMutability":"payable","type":"function"},{"stateMutability":"payable","type":"receive"}],"devdoc":{"details":"This contract implements a proxy that is upgradeable by an admin. To avoid https://medium.com/nomic-labs-blog/malicious-backdoors-in-ethereum-proxies-62629adf3357[proxy selector clashing], which can potentially be used in an attack, this contract uses the https://blog.openzeppelin.com/the-transparent-proxy-pattern/[transparent proxy pattern]. This pattern implies two things that go hand in hand: 1. If any account other than the admin calls the proxy, the call will be forwarded to the implementation, even if that call matches one of the admin functions exposed by the proxy itself. 2. If the admin calls the proxy, it can access the admin functions, but its calls will never be forwarded to the implementation. If the admin tries to call a function on the implementation it will fail with an error that says \"admin cannot fallback to proxy target\". These properties mean that the admin account can only be used for admin actions like upgrading the proxy or changing the admin, so it's best if it's a dedicated account that is not used for anything else. This will avoid headaches due to sudden errors when trying to call a function from the proxy implementation. Our recommendation is for the dedicated account to be an instance of the {ProxyAdmin} contract. If set up this way, you should think of the `ProxyAdmin` instance as the real administrative interface of your proxy.","kind":"dev","methods":{"admin()":{"details":"Returns the current admin. NOTE: Only the admin can call this function. See {ProxyAdmin-getProxyAdmin}. TIP: To get this value clients can read directly from the storage slot shown below (specified by EIP1967) using the https://eth.wiki/json-rpc/API#eth_getstorageat[`eth_getStorageAt`] RPC call. `0xb53127684a568b3173ae13b9f8a6016e243e63b6e8ee1178d6a717850b5d6103`"},"changeAdmin(address)":{"details":"Changes the admin of the proxy. Emits an {AdminChanged} event. NOTE: Only the admin can call this function. See {ProxyAdmin-changeProxyAdmin}."},"constructor":{"details":"Initializes an upgradeable proxy managed by `_admin`, backed by the implementation at `_logic`, and optionally initialized with `_data` as explained in {ERC1967Proxy-constructor}."},"implementation()":{"details":"Returns the current implementation. NOTE: Only the admin can call this function. See {ProxyAdmin-getProxyImplementation}. TIP: To get this value clients can read directly from the storage slot shown below (specified by EIP1967) using the https://eth.wiki/json-rpc/API#eth_getstorageat[`eth_getStorageAt`] RPC call. `0x360894a13ba1a3210667c828492db98dca3e2076cc3735a920a3ca505d382bbc`"},"upgradeTo(address)":{"details":"Upgrade the implementation of the proxy. NOTE: Only the admin can call this function. See {ProxyAdmin-upgrade}."},"upgradeToAndCall(address,bytes)":{"details":"Upgrade the implementation of the proxy, and then call a function from the new implementation as specified by `data`, which should be an encoded function call. This is useful to initialize new storage variables in the proxied contract. NOTE: Only the admin can call this function. See {ProxyAdmin-upgradeAndCall}."}},"version":1},"evm":{"bytecode":{"linkReferences":{},"object":"608060405260405162001906380380620019068339818101604052810190620000299190620005c6565b82816200003f828260006200005b60201b60201c565b505062000052826200009e60201b60201c565b50505062000a9b565b6200006c83620000fc60201b60201c565b6000825111806200007a5750805b1562000099576200009783836200015360201b6200034f1760201c565b505b505050565b7f7e644d79422f17c01e4894b5f4f588d331ebfa28653d42ae832dc59e38c9798f620000cf6200018960201b60201c565b82604051620000e092919062000758565b60405180910390a1620000f981620001ed60201b60201c565b50565b6200010d81620002de60201b60201c565b8073ffffffffffffffffffffffffffffffffffffffff167fbc7cd75a20ee27fd9adebab32041f755214dbc6bffa90cc0225b39da2e5c2d3b60405160405180910390a250565b6060620001818383604051806060016040528060278152602001620018df60279139620003b460201b60201c565b905092915050565b6000620001c47fb53127684a568b3173ae13b9f8a6016e243e63b6e8ee1178d6a717850b5d610360001b6200049860201b6200037c1760201c565b60000160009054906101000a900473ffffffffffffffffffffffffffffffffffffffff16905090565b600073ffffffffffffffffffffffffffffffffffffffff168173ffffffffffffffffffffffffffffffffffffffff16141562000260576040517f08c379a00000000000000000000000000000000000000000000000000000000081526004016200025790620007a9565b60405180910390fd5b806200029a7fb53127684a568b3173ae13b9f8a6016e243e63b6e8ee1178d6a717850b5d610360001b6200049860201b6200037c1760201c565b60000160006101000a81548173ffffffffffffffffffffffffffffffffffffffff021916908373ffffffffffffffffffffffffffffffffffffffff16021790555050565b620002f481620004a260201b620003861760201c565b62000336576040517f08c379a00000000000000000000000000000000000000000000000000000000081526004016200032d90620007cb565b60405180910390fd5b80620003707f360894a13ba1a3210667c828492db98dca3e2076cc3735a920a3ca505d382bbc60001b6200049860201b6200037c1760201c565b60000160006101000a81548173ffffffffffffffffffffffffffffffffffffffff021916908373ffffffffffffffffffffffffffffffffffffffff16021790555050565b6060620003c784620004a260201b60201c565b62000409576040517f08c379a00000000000000000000000000000000000000000000000000000000081526004016200040090620007ed565b60405180910390fd5b6000808573ffffffffffffffffffffffffffffffffffffffff16856040516200043391906200073f565b600060405180830381855af49150503d806000811462000470576040519150601f19603f3d011682016040523d82523d6000602084013e62000475565b606091505b50915091506200048d828286620004c560201b60201c565b925050509392505050565b6000819050919050565b6000808273ffffffffffffffffffffffffffffffffffffffff163b119050919050565b60608315620004d7578290506200052a565b600083511115620004eb5782518084602001fd5b816040517f08c379a000000000000000000000000000000000000000000000000000000000815260040162000521919062000785565b60405180910390fd5b9392505050565b600062000548620005428462000838565b6200080f565b90508281526020810184848401111562000567576200056662000974565b5b62000574848285620008d4565b509392505050565b6000815190506200058d8162000a81565b92915050565b600082601f830112620005ab57620005aa6200096f565b5b8151620005bd84826020860162000531565b91505092915050565b600080600060608486031215620005e257620005e16200097e565b5b6000620005f2868287016200057c565b935050602062000605868287016200057c565b925050604084015167ffffffffffffffff81111562000629576200062862000979565b5b620006378682870162000593565b9150509250925092565b6200064c81620008a0565b82525050565b60006200065f826200086e565b6200066b818562000884565b93506200067d818560208601620008d4565b80840191505092915050565b6000620006968262000879565b620006a281856200088f565b9350620006b4818560208601620008d4565b620006bf8162000983565b840191505092915050565b6000620006d96026836200088f565b9150620006e68262000994565b604082019050919050565b600062000700602d836200088f565b91506200070d82620009e3565b604082019050919050565b6000620007276026836200088f565b9150620007348262000a32565b604082019050919050565b60006200074d828462000652565b915081905092915050565b60006040820190506200076f600083018562000641565b6200077e602083018462000641565b9392505050565b60006020820190508181036000830152620007a1818462000689565b905092915050565b60006020820190508181036000830152620007c481620006ca565b9050919050565b60006020820190508181036000830152620007e681620006f1565b9050919050565b60006020820190508181036000830152620008088162000718565b9050919050565b60006200081b6200082e565b90506200082982826200090a565b919050565b6000604051905090565b600067ffffffffffffffff82111562000856576200085562000940565b5b620008618262000983565b9050602081019050919050565b600081519050919050565b600081519050919050565b600081905092915050565b600082825260208201905092915050565b6000620008ad82620008b4565b9050919050565b600073ffffffffffffffffffffffffffffffffffffffff82169050919050565b60005b83811015620008f4578082015181840152602081019050620008d7565b8381111562000904576000848401525b50505050565b620009158262000983565b810181811067ffffffffffffffff8211171562000937576200093662000940565b5b80604052505050565b7f4e487b7100000000000000000000000000000000000000000000000000000000600052604160045260246000fd5b600080fd5b600080fd5b600080fd5b600080fd5b6000601f19601f8301169050919050565b7f455243313936373a206e65772061646d696e20697320746865207a65726f206160008201527f6464726573730000000000000000000000000000000000000000000000000000602082015250565b7f455243313936373a206e657720696d706c656d656e746174696f6e206973206e60008201527f6f74206120636f6e747261637400000000000000000000000000000000000000602082015250565b7f416464726573733a2064656c65676174652063616c6c20746f206e6f6e2d636f60008201527f6e74726163740000000000000000000000000000000000000000000000000000602082015250565b62000a8c81620008a0565b811462000a9857600080fd5b50565b610e348062000aab6000396000f3fe60806040526004361061004e5760003560e01c80633659cfe6146100675780634f1ef286146100905780635c60da1b146100ac5780638f283970146100d7578063f851a440146101005761005d565b3661005d5761005b61012b565b005b61006561012b565b005b34801561007357600080fd5b5061008e6004803603810190610089919061090e565b610145565b005b6100aa60048036038101906100a5919061093b565b6101ac565b005b3480156100b857600080fd5b506100c161024a565b6040516100ce9190610ab7565b60405180910390f35b3480156100e357600080fd5b506100fe60048036038101906100f9919061090e565b6102a2565b005b34801561010c57600080fd5b506101156102f7565b6040516101229190610ab7565b60405180910390f35b6101336103a9565b61014361013e610429565b610438565b565b61014d61045e565b73ffffffffffffffffffffffffffffffffffffffff163373ffffffffffffffffffffffffffffffffffffffff1614156101a05761019b816040518060200160405280600081525060006104b5565b6101a9565b6101a861012b565b5b50565b6101b461045e565b73ffffffffffffffffffffffffffffffffffffffff163373ffffffffffffffffffffffffffffffffffffffff16141561023c576102378383838080601f016020809104026020016040519081016040528093929190818152602001838380828437600081840152601f19601f8201169050808301925050505050505060016104b5565b610245565b61024461012b565b5b505050565b600061025461045e565b73ffffffffffffffffffffffffffffffffffffffff163373ffffffffffffffffffffffffffffffffffffffff1614156102965761028f610429565b905061029f565b61029e61012b565b5b90565b6102aa61045e565b73ffffffffffffffffffffffffffffffffffffffff163373ffffffffffffffffffffffffffffffffffffffff1614156102eb576102e6816104e1565b6102f4565b6102f361012b565b5b50565b600061030161045e565b73ffffffffffffffffffffffffffffffffffffffff163373ffffffffffffffffffffffffffffffffffffffff1614156103435761033c61045e565b905061034c565b61034b61012b565b5b90565b60606103748383604051806060016040528060278152602001610dd86027913961052d565b905092915050565b6000819050919050565b6000808273ffffffffffffffffffffffffffffffffffffffff163b119050919050565b6103b161045e565b73ffffffffffffffffffffffffffffffffffffffff163373ffffffffffffffffffffffffffffffffffffffff16141561041f576040517f08c379a000000000000000000000000000000000000000000000000000000000815260040161041690610b7d565b60405180910390fd5b6104276105fa565b565b60006104336105fc565b905090565b3660008037600080366000845af43d6000803e8060008114610459573d6000f35b3d6000fd5b600061048c7fb53127684a568b3173ae13b9f8a6016e243e63b6e8ee1178d6a717850b5d610360001b61037c565b60000160009054906101000a900473ffffffffffffffffffffffffffffffffffffffff16905090565b6104be83610653565b6000825111806104cb5750805b156104dc576104da838361034f565b505b505050565b7f7e644d79422f17c01e4894b5f4f588d331ebfa28653d42ae832dc59e38c9798f61050a61045e565b82604051610519929190610ad2565b60405180910390a161052a816106a2565b50565b606061053884610386565b610577576040517f08c379a000000000000000000000000000000000000000000000000000000000815260040161056e90610b5d565b60405180910390fd5b6000808573ffffffffffffffffffffffffffffffffffffffff168560405161059f9190610aa0565b600060405180830381855af49150503d80600081146105da576040519150601f19603f3d011682016040523d82523d6000602084013e6105df565b606091505b50915091506105ef828286610783565b925050509392505050565b565b600061062a7f360894a13ba1a3210667c828492db98dca3e2076cc3735a920a3ca505d382bbc60001b61037c565b60000160009054906101000a900473ffffffffffffffffffffffffffffffffffffffff16905090565b61065c816107ea565b8073ffffffffffffffffffffffffffffffffffffffff167fbc7cd75a20ee27fd9adebab32041f755214dbc6bffa90cc0225b39da2e5c2d3b60405160405180910390a250565b600073ffffffffffffffffffffffffffffffffffffffff168173ffffffffffffffffffffffffffffffffffffffff161415610712576040517f08c379a000000000000000000000000000000000000000000000000000000000815260040161070990610b1d565b60405180910390fd5b8061073f7fb53127684a568b3173ae13b9f8a6016e243e63b6e8ee1178d6a717850b5d610360001b61037c565b60000160006101000a81548173ffffffffffffffffffffffffffffffffffffffff021916908373ffffffffffffffffffffffffffffffffffffffff16021790555050565b60608315610793578290506107e3565b6000835111156107a65782518084602001fd5b816040517f08c379a00000000000000000000000000000000000000000000000000000000081526004016107da9190610afb565b60405180910390fd5b9392505050565b6107f381610386565b610832576040517f08c379a000000000000000000000000000000000000000000000000000000000815260040161082990610b3d565b60405180910390fd5b8061085f7f360894a13ba1a3210667c828492db98dca3e2076cc3735a920a3ca505d382bbc60001b61037c565b60000160006101000a81548173ffffffffffffffffffffffffffffffffffffffff021916908373ffffffffffffffffffffffffffffffffffffffff16021790555050565b6000813590506108b281610dc0565b92915050565b60008083601f8401126108ce576108cd610c39565b5b8235905067ffffffffffffffff8111156108eb576108ea610c34565b5b60208301915083600182028301111561090757610906610c3e565b5b9250929050565b60006020828403121561092457610923610c48565b5b6000610932848285016108a3565b91505092915050565b60008060006040848603121561095457610953610c48565b5b6000610962868287016108a3565b935050602084013567ffffffffffffffff81111561098357610982610c43565b5b61098f868287016108b8565b92509250509250925092565b6109a481610bcf565b82525050565b60006109b582610b9d565b6109bf8185610bb3565b93506109cf818560208601610c01565b80840191505092915050565b60006109e682610ba8565b6109f08185610bbe565b9350610a00818560208601610c01565b610a0981610c4d565b840191505092915050565b6000610a21602683610bbe565b9150610a2c82610c5e565b604082019050919050565b6000610a44602d83610bbe565b9150610a4f82610cad565b604082019050919050565b6000610a67602683610bbe565b9150610a7282610cfc565b604082019050919050565b6000610a8a604283610bbe565b9150610a9582610d4b565b606082019050919050565b6000610aac82846109aa565b915081905092915050565b6000602082019050610acc600083018461099b565b92915050565b6000604082019050610ae7600083018561099b565b610af4602083018461099b565b9392505050565b60006020820190508181036000830152610b1581846109db565b905092915050565b60006020820190508181036000830152610b3681610a14565b9050919050565b60006020820190508181036000830152610b5681610a37565b9050919050565b60006020820190508181036000830152610b7681610a5a565b9050919050565b60006020820190508181036000830152610b9681610a7d565b9050919050565b600081519050919050565b600081519050919050565b600081905092915050565b600082825260208201905092915050565b6000610bda82610be1565b9050919050565b600073ffffffffffffffffffffffffffffffffffffffff82169050919050565b60005b83811015610c1f578082015181840152602081019050610c04565b83811115610c2e576000848401525b50505050565b600080fd5b600080fd5b600080fd5b600080fd5b600080fd5b6000601f19601f8301169050919050565b7f455243313936373a206e65772061646d696e20697320746865207a65726f206160008201527f6464726573730000000000000000000000000000000000000000000000000000602082015250565b7f455243313936373a206e657720696d706c656d656e746174696f6e206973206e60008201527f6f74206120636f6e747261637400000000000000000000000000000000000000602082015250565b7f416464726573733a2064656c65676174652063616c6c20746f206e6f6e2d636f60008201527f6e74726163740000000000000000000000000000000000000000000000000000602082015250565b7f5472616e73706172656e745570677261646561626c6550726f78793a2061646d60008201527f696e2063616e6e6f742066616c6c6261636b20746f2070726f7879207461726760208201527f6574000000000000000000000000000000000000000000000000000000000000604082015250565b610dc981610bcf565b8114610dd457600080fd5b5056fe416464726573733a206c6f772d6c6576656c2064656c65676174652063616c6c206661696c6564a2646970667358221220a9c081f02c377e24fa836565853f0975fc8ebcc351e543c07074c607aafd6db764736f6c63430008070033416464726573733a206c6f772d6c6576656c2064656c65676174652063616c6c206661696c6564","opcodes":"PUSH1 0x80 PUSH1 0x40 MSTORE PUSH1 0x40 MLOAD PUSH3 0x1906 CODESIZE SUB DUP1 PUSH3 0x1906 DUP4 CODECOPY DUP2 DUP2 ADD PUSH1 0x40 MSTORE DUP2 ADD SWAP1 PUSH3 0x29 SWAP2 SWAP1 PUSH3 0x5C6 JUMP JUMPDEST DUP3 DUP2 PUSH3 0x3F DUP3 DUP3 PUSH1 0x0 PUSH3 0x5B PUSH1 0x20 SHL PUSH1 0x20 SHR JUMP JUMPDEST POP POP PUSH3 0x52 DUP3 PUSH3 0x9E PUSH1 0x20 SHL PUSH1 0x20 SHR JUMP JUMPDEST POP POP POP PUSH3 0xA9B JUMP JUMPDEST PUSH3 0x6C DUP4 PUSH3 0xFC PUSH1 0x20 SHL PUSH1 0x20 SHR JUMP JUMPDEST PUSH1 0x0 DUP3 MLOAD GT DUP1 PUSH3 0x7A JUMPI POP DUP1 JUMPDEST ISZERO PUSH3 0x99 JUMPI PUSH3 0x97 DUP4 DUP4 PUSH3 0x153 PUSH1 0x20 SHL PUSH3 0x34F OR PUSH1 0x20 SHR JUMP JUMPDEST POP JUMPDEST POP POP POP JUMP JUMPDEST PUSH32 0x7E644D79422F17C01E4894B5F4F588D331EBFA28653D42AE832DC59E38C9798F PUSH3 0xCF PUSH3 0x189 PUSH1 0x20 SHL PUSH1 0x20 SHR JUMP JUMPDEST DUP3 PUSH1 0x40 MLOAD PUSH3 0xE0 SWAP3 SWAP2 SWAP1 PUSH3 0x758 JUMP JUMPDEST PUSH1 0x40 MLOAD DUP1 SWAP2 SUB SWAP1 LOG1 PUSH3 0xF9 DUP2 PUSH3 0x1ED PUSH1 0x20 SHL PUSH1 0x20 SHR JUMP JUMPDEST POP JUMP JUMPDEST PUSH3 0x10D DUP2 PUSH3 0x2DE PUSH1 0x20 SHL PUSH1 0x20 SHR JUMP JUMPDEST DUP1 PUSH20 0xFFFFFFFFFFFFFFFFFFFFFFFFFFFFFFFFFFFFFFFF AND PUSH32 0xBC7CD75A20EE27FD9ADEBAB32041F755214DBC6BFFA90CC0225B39DA2E5C2D3B PUSH1 0x40 MLOAD PUSH1 0x40 MLOAD DUP1 SWAP2 SUB SWAP1 LOG2 POP JUMP JUMPDEST PUSH1 0x60 PUSH3 0x181 DUP4 DUP4 PUSH1 0x40 MLOAD DUP1 PUSH1 0x60 ADD PUSH1 0x40 MSTORE DUP1 PUSH1 0x27 DUP2 MSTORE PUSH1 0x20 ADD PUSH3 0x18DF PUSH1 0x27 SWAP2 CODECOPY PUSH3 0x3B4 PUSH1 0x20 SHL PUSH1 0x20 SHR JUMP JUMPDEST SWAP1 POP SWAP3 SWAP2 POP POP JUMP JUMPDEST PUSH1 0x0 PUSH3 0x1C4 PUSH32 0xB53127684A568B3173AE13B9F8A6016E243E63B6E8EE1178D6A717850B5D6103 PUSH1 0x0 SHL PUSH3 0x498 PUSH1 0x20 SHL PUSH3 0x37C OR PUSH1 0x20 SHR JUMP JUMPDEST PUSH1 0x0 ADD PUSH1 0x0 SWAP1 SLOAD SWAP1 PUSH2 0x100 EXP SWAP1 DIV PUSH20 0xFFFFFFFFFFFFFFFFFFFFFFFFFFFFFFFFFFFFFFFF AND SWAP1 POP SWAP1 JUMP JUMPDEST PUSH1 0x0 PUSH20 0xFFFFFFFFFFFFFFFFFFFFFFFFFFFFFFFFFFFFFFFF AND DUP2 PUSH20 0xFFFFFFFFFFFFFFFFFFFFFFFFFFFFFFFFFFFFFFFF AND EQ ISZERO PUSH3 0x260 JUMPI PUSH1 0x40 MLOAD PUSH32 0x8C379A000000000000000000000000000000000000000000000000000000000 DUP2 MSTORE PUSH1 0x4 ADD PUSH3 0x257 SWAP1 PUSH3 0x7A9 JUMP JUMPDEST PUSH1 0x40 MLOAD DUP1 SWAP2 SUB SWAP1 REVERT JUMPDEST DUP1 PUSH3 0x29A PUSH32 0xB53127684A568B3173AE13B9F8A6016E243E63B6E8EE1178D6A717850B5D6103 PUSH1 0x0 SHL PUSH3 0x498 PUSH1 0x20 SHL PUSH3 0x37C OR PUSH1 0x20 SHR JUMP JUMPDEST PUSH1 0x0 ADD PUSH1 0x0 PUSH2 0x100 EXP DUP2 SLOAD DUP2 PUSH20 0xFFFFFFFFFFFFFFFFFFFFFFFFFFFFFFFFFFFFFFFF MUL NOT AND SWAP1 DUP4 PUSH20 0xFFFFFFFFFFFFFFFFFFFFFFFFFFFFFFFFFFFFFFFF AND MUL OR SWAP1 SSTORE POP POP JUMP JUMPDEST PUSH3 0x2F4 DUP2 PUSH3 0x4A2 PUSH1 0x20 SHL PUSH3 0x386 OR PUSH1 0x20 SHR JUMP JUMPDEST PUSH3 0x336 JUMPI PUSH1 0x40 MLOAD PUSH32 0x8C379A000000000000000000000000000000000000000000000000000000000 DUP2 MSTORE PUSH1 0x4 ADD PUSH3 0x32D SWAP1 PUSH3 0x7CB JUMP JUMPDEST PUSH1 0x40 MLOAD DUP1 SWAP2 SUB SWAP1 REVERT JUMPDEST DUP1 PUSH3 0x370 PUSH32 0x360894A13BA1A3210667C828492DB98DCA3E2076CC3735A920A3CA505D382BBC PUSH1 0x0 SHL PUSH3 0x498 PUSH1 0x20 SHL PUSH3 0x37C OR PUSH1 0x20 SHR JUMP JUMPDEST PUSH1 0x0 ADD PUSH1 0x0 PUSH2 0x100 EXP DUP2 SLOAD DUP2 PUSH20 0xFFFFFFFFFFFFFFFFFFFFFFFFFFFFFFFFFFFFFFFF MUL NOT AND SWAP1 DUP4 PUSH20 0xFFFFFFFFFFFFFFFFFFFFFFFFFFFFFFFFFFFFFFFF AND MUL OR SWAP1 SSTORE POP POP JUMP JUMPDEST PUSH1 0x60 PUSH3 0x3C7 DUP5 PUSH3 0x4A2 PUSH1 0x20 SHL PUSH1 0x20 SHR JUMP JUMPDEST PUSH3 0x409 JUMPI PUSH1 0x40 MLOAD PUSH32 0x8C379A000000000000000000000000000000000000000000000000000000000 DUP2 MSTORE PUSH1 0x4 ADD PUSH3 0x400 SWAP1 PUSH3 0x7ED JUMP JUMPDEST PUSH1 0x40 MLOAD DUP1 SWAP2 SUB SWAP1 REVERT JUMPDEST PUSH1 0x0 DUP1 DUP6 PUSH20 0xFFFFFFFFFFFFFFFFFFFFFFFFFFFFFFFFFFFFFFFF AND DUP6 PUSH1 0x40 MLOAD PUSH3 0x433 SWAP2 SWAP1 PUSH3 0x73F JUMP JUMPDEST PUSH1 0x0 PUSH1 0x40 MLOAD DUP1 DUP4 SUB DUP2 DUP6 GAS DELEGATECALL SWAP2 POP POP RETURNDATASIZE DUP1 PUSH1 0x0 DUP2 EQ PUSH3 0x470 JUMPI PUSH1 0x40 MLOAD SWAP2 POP PUSH1 0x1F NOT PUSH1 0x3F RETURNDATASIZE ADD AND DUP3 ADD PUSH1 0x40 MSTORE RETURNDATASIZE DUP3 MSTORE RETURNDATASIZE PUSH1 0x0 PUSH1 0x20 DUP5 ADD RETURNDATACOPY PUSH3 0x475 JUMP JUMPDEST PUSH1 0x60 SWAP2 POP JUMPDEST POP SWAP2 POP SWAP2 POP PUSH3 0x48D DUP3 DUP3 DUP7 PUSH3 0x4C5 PUSH1 0x20 SHL PUSH1 0x20 SHR JUMP JUMPDEST SWAP3 POP POP POP SWAP4 SWAP3 POP POP POP JUMP JUMPDEST PUSH1 0x0 DUP2 SWAP1 POP SWAP2 SWAP1 POP JUMP JUMPDEST PUSH1 0x0 DUP1 DUP3 PUSH20 0xFFFFFFFFFFFFFFFFFFFFFFFFFFFFFFFFFFFFFFFF AND EXTCODESIZE GT SWAP1 POP SWAP2 SWAP1 POP JUMP JUMPDEST PUSH1 0x60 DUP4 ISZERO PUSH3 0x4D7 JUMPI DUP3 SWAP1 POP PUSH3 0x52A JUMP JUMPDEST PUSH1 0x0 DUP4 MLOAD GT ISZERO PUSH3 0x4EB JUMPI DUP3 MLOAD DUP1 DUP5 PUSH1 0x20 ADD REVERT JUMPDEST DUP2 PUSH1 0x40 MLOAD PUSH32 0x8C379A000000000000000000000000000000000000000000000000000000000 DUP2 MSTORE PUSH1 0x4 ADD PUSH3 0x521 SWAP2 SWAP1 PUSH3 0x785 JUMP JUMPDEST PUSH1 0x40 MLOAD DUP1 SWAP2 SUB SWAP1 REVERT JUMPDEST SWAP4 SWAP3 POP POP POP JUMP JUMPDEST PUSH1 0x0 PUSH3 0x548 PUSH3 0x542 DUP5 PUSH3 0x838 JUMP JUMPDEST PUSH3 0x80F JUMP JUMPDEST SWAP1 POP DUP3 DUP2 MSTORE PUSH1 0x20 DUP2 ADD DUP5 DUP5 DUP5 ADD GT ISZERO PUSH3 0x567 JUMPI PUSH3 0x566 PUSH3 0x974 JUMP JUMPDEST JUMPDEST PUSH3 0x574 DUP5 DUP3 DUP6 PUSH3 0x8D4 JUMP JUMPDEST POP SWAP4 SWAP3 POP POP POP JUMP JUMPDEST PUSH1 0x0 DUP2 MLOAD SWAP1 POP PUSH3 0x58D DUP2 PUSH3 0xA81 JUMP JUMPDEST SWAP3 SWAP2 POP POP JUMP JUMPDEST PUSH1 0x0 DUP3 PUSH1 0x1F DUP4 ADD SLT PUSH3 0x5AB JUMPI PUSH3 0x5AA PUSH3 0x96F JUMP JUMPDEST JUMPDEST DUP2 MLOAD PUSH3 0x5BD DUP5 DUP3 PUSH1 0x20 DUP7 ADD PUSH3 0x531 JUMP JUMPDEST SWAP2 POP POP SWAP3 SWAP2 POP POP JUMP JUMPDEST PUSH1 0x0 DUP1 PUSH1 0x0 PUSH1 0x60 DUP5 DUP7 SUB SLT ISZERO PUSH3 0x5E2 JUMPI PUSH3 0x5E1 PUSH3 0x97E JUMP JUMPDEST JUMPDEST PUSH1 0x0 PUSH3 0x5F2 DUP7 DUP3 DUP8 ADD PUSH3 0x57C JUMP JUMPDEST SWAP4 POP POP PUSH1 0x20 PUSH3 0x605 DUP7 DUP3 DUP8 ADD PUSH3 0x57C JUMP JUMPDEST SWAP3 POP POP PUSH1 0x40 DUP5 ADD MLOAD PUSH8 0xFFFFFFFFFFFFFFFF DUP2 GT ISZERO PUSH3 0x629 JUMPI PUSH3 0x628 PUSH3 0x979 JUMP JUMPDEST JUMPDEST PUSH3 0x637 DUP7 DUP3 DUP8 ADD PUSH3 0x593 JUMP JUMPDEST SWAP2 POP POP SWAP3 POP SWAP3 POP SWAP3 JUMP JUMPDEST PUSH3 0x64C DUP2 PUSH3 0x8A0 JUMP JUMPDEST DUP3 MSTORE POP POP JUMP JUMPDEST PUSH1 0x0 PUSH3 0x65F DUP3 PUSH3 0x86E JUMP JUMPDEST PUSH3 0x66B DUP2 DUP6 PUSH3 0x884 JUMP JUMPDEST SWAP4 POP PUSH3 0x67D DUP2 DUP6 PUSH1 0x20 DUP7 ADD PUSH3 0x8D4 JUMP JUMPDEST DUP1 DUP5 ADD SWAP2 POP POP SWAP3 SWAP2 POP POP JUMP JUMPDEST PUSH1 0x0 PUSH3 0x696 DUP3 PUSH3 0x879 JUMP JUMPDEST PUSH3 0x6A2 DUP2 DUP6 PUSH3 0x88F JUMP JUMPDEST SWAP4 POP PUSH3 0x6B4 DUP2 DUP6 PUSH1 0x20 DUP7 ADD PUSH3 0x8D4 JUMP JUMPDEST PUSH3 0x6BF DUP2 PUSH3 0x983 JUMP JUMPDEST DUP5 ADD SWAP2 POP POP SWAP3 SWAP2 POP POP JUMP JUMPDEST PUSH1 0x0 PUSH3 0x6D9 PUSH1 0x26 DUP4 PUSH3 0x88F JUMP JUMPDEST SWAP2 POP PUSH3 0x6E6 DUP3 PUSH3 0x994 JUMP JUMPDEST PUSH1 0x40 DUP3 ADD SWAP1 POP SWAP2 SWAP1 POP JUMP JUMPDEST PUSH1 0x0 PUSH3 0x700 PUSH1 0x2D DUP4 PUSH3 0x88F JUMP JUMPDEST SWAP2 POP PUSH3 0x70D DUP3 PUSH3 0x9E3 JUMP JUMPDEST PUSH1 0x40 DUP3 ADD SWAP1 POP SWAP2 SWAP1 POP JUMP JUMPDEST PUSH1 0x0 PUSH3 0x727 PUSH1 0x26 DUP4 PUSH3 0x88F JUMP JUMPDEST SWAP2 POP PUSH3 0x734 DUP3 PUSH3 0xA32 JUMP JUMPDEST PUSH1 0x40 DUP3 ADD SWAP1 POP SWAP2 SWAP1 POP JUMP JUMPDEST PUSH1 0x0 PUSH3 0x74D DUP3 DUP5 PUSH3 0x652 JUMP JUMPDEST SWAP2 POP DUP2 SWAP1 POP SWAP3 SWAP2 POP POP JUMP JUMPDEST PUSH1 0x0 PUSH1 0x40 DUP3 ADD SWAP1 POP PUSH3 0x76F PUSH1 0x0 DUP4 ADD DUP6 PUSH3 0x641 JUMP JUMPDEST PUSH3 0x77E PUSH1 0x20 DUP4 ADD DUP5 PUSH3 0x641 JUMP JUMPDEST SWAP4 SWAP3 POP POP POP JUMP JUMPDEST PUSH1 0x0 PUSH1 0x20 DUP3 ADD SWAP1 POP DUP2 DUP2 SUB PUSH1 0x0 DUP4 ADD MSTORE PUSH3 0x7A1 DUP2 DUP5 PUSH3 0x689 JUMP JUMPDEST SWAP1 POP SWAP3 SWAP2 POP POP JUMP JUMPDEST PUSH1 0x0 PUSH1 0x20 DUP3 ADD SWAP1 POP DUP2 DUP2 SUB PUSH1 0x0 DUP4 ADD MSTORE PUSH3 0x7C4 DUP2 PUSH3 0x6CA JUMP JUMPDEST SWAP1 POP SWAP2 SWAP1 POP JUMP JUMPDEST PUSH1 0x0 PUSH1 0x20 DUP3 ADD SWAP1 POP DUP2 DUP2 SUB PUSH1 0x0 DUP4 ADD MSTORE PUSH3 0x7E6 DUP2 PUSH3 0x6F1 JUMP JUMPDEST SWAP1 POP SWAP2 SWAP1 POP JUMP JUMPDEST PUSH1 0x0 PUSH1 0x20 DUP3 ADD SWAP1 POP DUP2 DUP2 SUB PUSH1 0x0 DUP4 ADD MSTORE PUSH3 0x808 DUP2 PUSH3 0x718 JUMP JUMPDEST SWAP1 POP SWAP2 SWAP1 POP JUMP JUMPDEST PUSH1 0x0 PUSH3 0x81B PUSH3 0x82E JUMP JUMPDEST SWAP1 POP PUSH3 0x829 DUP3 DUP3 PUSH3 0x90A JUMP JUMPDEST SWAP2 SWAP1 POP JUMP JUMPDEST PUSH1 0x0 PUSH1 0x40 MLOAD SWAP1 POP SWAP1 JUMP JUMPDEST PUSH1 0x0 PUSH8 0xFFFFFFFFFFFFFFFF DUP3 GT ISZERO PUSH3 0x856 JUMPI PUSH3 0x855 PUSH3 0x940 JUMP JUMPDEST JUMPDEST PUSH3 0x861 DUP3 PUSH3 0x983 JUMP JUMPDEST SWAP1 POP PUSH1 0x20 DUP2 ADD SWAP1 POP SWAP2 SWAP1 POP JUMP JUMPDEST PUSH1 0x0 DUP2 MLOAD SWAP1 POP SWAP2 SWAP1 POP JUMP JUMPDEST PUSH1 0x0 DUP2 MLOAD SWAP1 POP SWAP2 SWAP1 POP JUMP JUMPDEST PUSH1 0x0 DUP2 SWAP1 POP SWAP3 SWAP2 POP POP JUMP JUMPDEST PUSH1 0x0 DUP3 DUP3 MSTORE PUSH1 0x20 DUP3 ADD SWAP1 POP SWAP3 SWAP2 POP POP JUMP JUMPDEST PUSH1 0x0 PUSH3 0x8AD DUP3 PUSH3 0x8B4 JUMP JUMPDEST SWAP1 POP SWAP2 SWAP1 POP JUMP JUMPDEST PUSH1 0x0 PUSH20 0xFFFFFFFFFFFFFFFFFFFFFFFFFFFFFFFFFFFFFFFF DUP3 AND SWAP1 POP SWAP2 SWAP1 POP JUMP JUMPDEST PUSH1 0x0 JUMPDEST DUP4 DUP2 LT ISZERO PUSH3 0x8F4 JUMPI DUP1 DUP3 ADD MLOAD DUP2 DUP5 ADD MSTORE PUSH1 0x20 DUP2 ADD SWAP1 POP PUSH3 0x8D7 JUMP JUMPDEST DUP4 DUP2 GT ISZERO PUSH3 0x904 JUMPI PUSH1 0x0 DUP5 DUP5 ADD MSTORE JUMPDEST POP POP POP POP JUMP JUMPDEST PUSH3 0x915 DUP3 PUSH3 0x983 JUMP JUMPDEST DUP2 ADD DUP2 DUP2 LT PUSH8 0xFFFFFFFFFFFFFFFF DUP3 GT OR ISZERO PUSH3 0x937 JUMPI PUSH3 0x936 PUSH3 0x940 JUMP JUMPDEST JUMPDEST DUP1 PUSH1 0x40 MSTORE POP POP POP JUMP JUMPDEST PUSH32 0x4E487B7100000000000000000000000000000000000000000000000000000000 PUSH1 0x0 MSTORE PUSH1 0x41 PUSH1 0x4 MSTORE PUSH1 0x24 PUSH1 0x0 REVERT JUMPDEST PUSH1 0x0 DUP1 REVERT JUMPDEST PUSH1 0x0 DUP1 REVERT JUMPDEST PUSH1 0x0 DUP1 REVERT JUMPDEST PUSH1 0x0 DUP1 REVERT JUMPDEST PUSH1 0x0 PUSH1 0x1F NOT PUSH1 0x1F DUP4 ADD AND SWAP1 POP SWAP2 SWAP1 POP JUMP JUMPDEST PUSH32 0x455243313936373A206E65772061646D696E20697320746865207A65726F2061 PUSH1 0x0 DUP3 ADD MSTORE PUSH32 0x6464726573730000000000000000000000000000000000000000000000000000 PUSH1 0x20 DUP3 ADD MSTORE POP JUMP JUMPDEST PUSH32 0x455243313936373A206E657720696D706C656D656E746174696F6E206973206E PUSH1 0x0 DUP3 ADD MSTORE PUSH32 0x6F74206120636F6E747261637400000000000000000000000000000000000000 PUSH1 0x20 DUP3 ADD MSTORE POP JUMP JUMPDEST PUSH32 0x416464726573733A2064656C65676174652063616C6C20746F206E6F6E2D636F PUSH1 0x0 DUP3 ADD MSTORE PUSH32 0x6E74726163740000000000000000000000000000000000000000000000000000 PUSH1 0x20 DUP3 ADD MSTORE POP JUMP JUMPDEST PUSH3 0xA8C DUP2 PUSH3 0x8A0 JUMP JUMPDEST DUP2 EQ PUSH3 0xA98 JUMPI PUSH1 0x0 DUP1 REVERT JUMPDEST POP JUMP JUMPDEST PUSH2 0xE34 DUP1 PUSH3 0xAAB PUSH1 0x0 CODECOPY PUSH1 0x0 RETURN INVALID PUSH1 0x80 PUSH1 0x40 MSTORE PUSH1 0x4 CALLDATASIZE LT PUSH2 0x4E JUMPI PUSH1 0x0 CALLDATALOAD PUSH1 0xE0 SHR DUP1 PUSH4 0x3659CFE6 EQ PUSH2 0x67 JUMPI DUP1 PUSH4 0x4F1EF286 EQ PUSH2 0x90 JUMPI DUP1 PUSH4 0x5C60DA1B EQ PUSH2 0xAC JUMPI DUP1 PUSH4 0x8F283970 EQ PUSH2 0xD7 JUMPI DUP1 PUSH4 0xF851A440 EQ PUSH2 0x100 JUMPI PUSH2 0x5D JUMP JUMPDEST CALLDATASIZE PUSH2 0x5D JUMPI PUSH2 0x5B PUSH2 0x12B JUMP JUMPDEST STOP JUMPDEST PUSH2 0x65 PUSH2 0x12B JUMP JUMPDEST STOP JUMPDEST CALLVALUE DUP1 ISZERO PUSH2 0x73 JUMPI PUSH1 0x0 DUP1 REVERT JUMPDEST POP PUSH2 0x8E PUSH1 0x4 DUP1 CALLDATASIZE SUB DUP2 ADD SWAP1 PUSH2 0x89 SWAP2 SWAP1 PUSH2 0x90E JUMP JUMPDEST PUSH2 0x145 JUMP JUMPDEST STOP JUMPDEST PUSH2 0xAA PUSH1 0x4 DUP1 CALLDATASIZE SUB DUP2 ADD SWAP1 PUSH2 0xA5 SWAP2 SWAP1 PUSH2 0x93B JUMP JUMPDEST PUSH2 0x1AC JUMP JUMPDEST STOP JUMPDEST CALLVALUE DUP1 ISZERO PUSH2 0xB8 JUMPI PUSH1 0x0 DUP1 REVERT JUMPDEST POP PUSH2 0xC1 PUSH2 0x24A JUMP JUMPDEST PUSH1 0x40 MLOAD PUSH2 0xCE SWAP2 SWAP1 PUSH2 0xAB7 JUMP JUMPDEST PUSH1 0x40 MLOAD DUP1 SWAP2 SUB SWAP1 RETURN JUMPDEST CALLVALUE DUP1 ISZERO PUSH2 0xE3 JUMPI PUSH1 0x0 DUP1 REVERT JUMPDEST POP PUSH2 0xFE PUSH1 0x4 DUP1 CALLDATASIZE SUB DUP2 ADD SWAP1 PUSH2 0xF9 SWAP2 SWAP1 PUSH2 0x90E JUMP JUMPDEST PUSH2 0x2A2 JUMP JUMPDEST STOP JUMPDEST CALLVALUE DUP1 ISZERO PUSH2 0x10C JUMPI PUSH1 0x0 DUP1 REVERT JUMPDEST POP PUSH2 0x115 PUSH2 0x2F7 JUMP JUMPDEST PUSH1 0x40 MLOAD PUSH2 0x122 SWAP2 SWAP1 PUSH2 0xAB7 JUMP JUMPDEST PUSH1 0x40 MLOAD DUP1 SWAP2 SUB SWAP1 RETURN JUMPDEST PUSH2 0x133 PUSH2 0x3A9 JUMP JUMPDEST PUSH2 0x143 PUSH2 0x13E PUSH2 0x429 JUMP JUMPDEST PUSH2 0x438 JUMP JUMPDEST JUMP JUMPDEST PUSH2 0x14D PUSH2 0x45E JUMP JUMPDEST PUSH20 0xFFFFFFFFFFFFFFFFFFFFFFFFFFFFFFFFFFFFFFFF AND CALLER PUSH20 0xFFFFFFFFFFFFFFFFFFFFFFFFFFFFFFFFFFFFFFFF AND EQ ISZERO PUSH2 0x1A0 JUMPI PUSH2 0x19B DUP2 PUSH1 0x40 MLOAD DUP1 PUSH1 0x20 ADD PUSH1 0x40 MSTORE DUP1 PUSH1 0x0 DUP2 MSTORE POP PUSH1 0x0 PUSH2 0x4B5 JUMP JUMPDEST PUSH2 0x1A9 JUMP JUMPDEST PUSH2 0x1A8 PUSH2 0x12B JUMP JUMPDEST JUMPDEST POP JUMP JUMPDEST PUSH2 0x1B4 PUSH2 0x45E JUMP JUMPDEST PUSH20 0xFFFFFFFFFFFFFFFFFFFFFFFFFFFFFFFFFFFFFFFF AND CALLER PUSH20 0xFFFFFFFFFFFFFFFFFFFFFFFFFFFFFFFFFFFFFFFF AND EQ ISZERO PUSH2 0x23C JUMPI PUSH2 0x237 DUP4 DUP4 DUP4 DUP1 DUP1 PUSH1 0x1F ADD PUSH1 0x20 DUP1 SWAP2 DIV MUL PUSH1 0x20 ADD PUSH1 0x40 MLOAD SWAP1 DUP2 ADD PUSH1 0x40 MSTORE DUP1 SWAP4 SWAP3 SWAP2 SWAP1 DUP2 DUP2 MSTORE PUSH1 0x20 ADD DUP4 DUP4 DUP1 DUP3 DUP5 CALLDATACOPY PUSH1 0x0 DUP2 DUP5 ADD MSTORE PUSH1 0x1F NOT PUSH1 0x1F DUP3 ADD AND SWAP1 POP DUP1 DUP4 ADD SWAP3 POP POP POP POP POP POP POP PUSH1 0x1 PUSH2 0x4B5 JUMP JUMPDEST PUSH2 0x245 JUMP JUMPDEST PUSH2 0x244 PUSH2 0x12B JUMP JUMPDEST JUMPDEST POP POP POP JUMP JUMPDEST PUSH1 0x0 PUSH2 0x254 PUSH2 0x45E JUMP JUMPDEST PUSH20 0xFFFFFFFFFFFFFFFFFFFFFFFFFFFFFFFFFFFFFFFF AND CALLER PUSH20 0xFFFFFFFFFFFFFFFFFFFFFFFFFFFFFFFFFFFFFFFF AND EQ ISZERO PUSH2 0x296 JUMPI PUSH2 0x28F PUSH2 0x429 JUMP JUMPDEST SWAP1 POP PUSH2 0x29F JUMP JUMPDEST PUSH2 0x29E PUSH2 0x12B JUMP JUMPDEST JUMPDEST SWAP1 JUMP JUMPDEST PUSH2 0x2AA PUSH2 0x45E JUMP JUMPDEST PUSH20 0xFFFFFFFFFFFFFFFFFFFFFFFFFFFFFFFFFFFFFFFF AND CALLER PUSH20 0xFFFFFFFFFFFFFFFFFFFFFFFFFFFFFFFFFFFFFFFF AND EQ ISZERO PUSH2 0x2EB JUMPI PUSH2 0x2E6 DUP2 PUSH2 0x4E1 JUMP JUMPDEST PUSH2 0x2F4 JUMP JUMPDEST PUSH2 0x2F3 PUSH2 0x12B JUMP JUMPDEST JUMPDEST POP JUMP JUMPDEST PUSH1 0x0 PUSH2 0x301 PUSH2 0x45E JUMP JUMPDEST PUSH20 0xFFFFFFFFFFFFFFFFFFFFFFFFFFFFFFFFFFFFFFFF AND CALLER PUSH20 0xFFFFFFFFFFFFFFFFFFFFFFFFFFFFFFFFFFFFFFFF AND EQ ISZERO PUSH2 0x343 JUMPI PUSH2 0x33C PUSH2 0x45E JUMP JUMPDEST SWAP1 POP PUSH2 0x34C JUMP JUMPDEST PUSH2 0x34B PUSH2 0x12B JUMP JUMPDEST JUMPDEST SWAP1 JUMP JUMPDEST PUSH1 0x60 PUSH2 0x374 DUP4 DUP4 PUSH1 0x40 MLOAD DUP1 PUSH1 0x60 ADD PUSH1 0x40 MSTORE DUP1 PUSH1 0x27 DUP2 MSTORE PUSH1 0x20 ADD PUSH2 0xDD8 PUSH1 0x27 SWAP2 CODECOPY PUSH2 0x52D JUMP JUMPDEST SWAP1 POP SWAP3 SWAP2 POP POP JUMP JUMPDEST PUSH1 0x0 DUP2 SWAP1 POP SWAP2 SWAP1 POP JUMP JUMPDEST PUSH1 0x0 DUP1 DUP3 PUSH20 0xFFFFFFFFFFFFFFFFFFFFFFFFFFFFFFFFFFFFFFFF AND EXTCODESIZE GT SWAP1 POP SWAP2 SWAP1 POP JUMP JUMPDEST PUSH2 0x3B1 PUSH2 0x45E JUMP JUMPDEST PUSH20 0xFFFFFFFFFFFFFFFFFFFFFFFFFFFFFFFFFFFFFFFF AND CALLER PUSH20 0xFFFFFFFFFFFFFFFFFFFFFFFFFFFFFFFFFFFFFFFF AND EQ ISZERO PUSH2 0x41F JUMPI PUSH1 0x40 MLOAD PUSH32 0x8C379A000000000000000000000000000000000000000000000000000000000 DUP2 MSTORE PUSH1 0x4 ADD PUSH2 0x416 SWAP1 PUSH2 0xB7D JUMP JUMPDEST PUSH1 0x40 MLOAD DUP1 SWAP2 SUB SWAP1 REVERT JUMPDEST PUSH2 0x427 PUSH2 0x5FA JUMP JUMPDEST JUMP JUMPDEST PUSH1 0x0 PUSH2 0x433 PUSH2 0x5FC JUMP JUMPDEST SWAP1 POP SWAP1 JUMP JUMPDEST CALLDATASIZE PUSH1 0x0 DUP1 CALLDATACOPY PUSH1 0x0 DUP1 CALLDATASIZE PUSH1 0x0 DUP5 GAS DELEGATECALL RETURNDATASIZE PUSH1 0x0 DUP1 RETURNDATACOPY DUP1 PUSH1 0x0 DUP2 EQ PUSH2 0x459 JUMPI RETURNDATASIZE PUSH1 0x0 RETURN JUMPDEST RETURNDATASIZE PUSH1 0x0 REVERT JUMPDEST PUSH1 0x0 PUSH2 0x48C PUSH32 0xB53127684A568B3173AE13B9F8A6016E243E63B6E8EE1178D6A717850B5D6103 PUSH1 0x0 SHL PUSH2 0x37C JUMP JUMPDEST PUSH1 0x0 ADD PUSH1 0x0 SWAP1 SLOAD SWAP1 PUSH2 0x100 EXP SWAP1 DIV PUSH20 0xFFFFFFFFFFFFFFFFFFFFFFFFFFFFFFFFFFFFFFFF AND SWAP1 POP SWAP1 JUMP JUMPDEST PUSH2 0x4BE DUP4 PUSH2 0x653 JUMP JUMPDEST PUSH1 0x0 DUP3 MLOAD GT DUP1 PUSH2 0x4CB JUMPI POP DUP1 JUMPDEST ISZERO PUSH2 0x4DC JUMPI PUSH2 0x4DA DUP4 DUP4 PUSH2 0x34F JUMP JUMPDEST POP JUMPDEST POP POP POP JUMP JUMPDEST PUSH32 0x7E644D79422F17C01E4894B5F4F588D331EBFA28653D42AE832DC59E38C9798F PUSH2 0x50A PUSH2 0x45E JUMP JUMPDEST DUP3 PUSH1 0x40 MLOAD PUSH2 0x519 SWAP3 SWAP2 SWAP1 PUSH2 0xAD2 JUMP JUMPDEST PUSH1 0x40 MLOAD DUP1 SWAP2 SUB SWAP1 LOG1 PUSH2 0x52A DUP2 PUSH2 0x6A2 JUMP JUMPDEST POP JUMP JUMPDEST PUSH1 0x60 PUSH2 0x538 DUP5 PUSH2 0x386 JUMP JUMPDEST PUSH2 0x577 JUMPI PUSH1 0x40 MLOAD PUSH32 0x8C379A000000000000000000000000000000000000000000000000000000000 DUP2 MSTORE PUSH1 0x4 ADD PUSH2 0x56E SWAP1 PUSH2 0xB5D JUMP JUMPDEST PUSH1 0x40 MLOAD DUP1 SWAP2 SUB SWAP1 REVERT JUMPDEST PUSH1 0x0 DUP1 DUP6 PUSH20 0xFFFFFFFFFFFFFFFFFFFFFFFFFFFFFFFFFFFFFFFF AND DUP6 PUSH1 0x40 MLOAD PUSH2 0x59F SWAP2 SWAP1 PUSH2 0xAA0 JUMP JUMPDEST PUSH1 0x0 PUSH1 0x40 MLOAD DUP1 DUP4 SUB DUP2 DUP6 GAS DELEGATECALL SWAP2 POP POP RETURNDATASIZE DUP1 PUSH1 0x0 DUP2 EQ PUSH2 0x5DA JUMPI PUSH1 0x40 MLOAD SWAP2 POP PUSH1 0x1F NOT PUSH1 0x3F RETURNDATASIZE ADD AND DUP3 ADD PUSH1 0x40 MSTORE RETURNDATASIZE DUP3 MSTORE RETURNDATASIZE PUSH1 0x0 PUSH1 0x20 DUP5 ADD RETURNDATACOPY PUSH2 0x5DF JUMP JUMPDEST PUSH1 0x60 SWAP2 POP JUMPDEST POP SWAP2 POP SWAP2 POP PUSH2 0x5EF DUP3 DUP3 DUP7 PUSH2 0x783 JUMP JUMPDEST SWAP3 POP POP POP SWAP4 SWAP3 POP POP POP JUMP JUMPDEST JUMP JUMPDEST PUSH1 0x0 PUSH2 0x62A PUSH32 0x360894A13BA1A3210667C828492DB98DCA3E2076CC3735A920A3CA505D382BBC PUSH1 0x0 SHL PUSH2 0x37C JUMP JUMPDEST PUSH1 0x0 ADD PUSH1 0x0 SWAP1 SLOAD SWAP1 PUSH2 0x100 EXP SWAP1 DIV PUSH20 0xFFFFFFFFFFFFFFFFFFFFFFFFFFFFFFFFFFFFFFFF AND SWAP1 POP SWAP1 JUMP JUMPDEST PUSH2 0x65C DUP2 PUSH2 0x7EA JUMP JUMPDEST DUP1 PUSH20 0xFFFFFFFFFFFFFFFFFFFFFFFFFFFFFFFFFFFFFFFF AND PUSH32 0xBC7CD75A20EE27FD9ADEBAB32041F755214DBC6BFFA90CC0225B39DA2E5C2D3B PUSH1 0x40 MLOAD PUSH1 0x40 MLOAD DUP1 SWAP2 SUB SWAP1 LOG2 POP JUMP JUMPDEST PUSH1 0x0 PUSH20 0xFFFFFFFFFFFFFFFFFFFFFFFFFFFFFFFFFFFFFFFF AND DUP2 PUSH20 0xFFFFFFFFFFFFFFFFFFFFFFFFFFFFFFFFFFFFFFFF AND EQ ISZERO PUSH2 0x712 JUMPI PUSH1 0x40 MLOAD PUSH32 0x8C379A000000000000000000000000000000000000000000000000000000000 DUP2 MSTORE PUSH1 0x4 ADD PUSH2 0x709 SWAP1 PUSH2 0xB1D JUMP JUMPDEST PUSH1 0x40 MLOAD DUP1 SWAP2 SUB SWAP1 REVERT JUMPDEST DUP1 PUSH2 0x73F PUSH32 0xB53127684A568B3173AE13B9F8A6016E243E63B6E8EE1178D6A717850B5D6103 PUSH1 0x0 SHL PUSH2 0x37C JUMP JUMPDEST PUSH1 0x0 ADD PUSH1 0x0 PUSH2 0x100 EXP DUP2 SLOAD DUP2 PUSH20 0xFFFFFFFFFFFFFFFFFFFFFFFFFFFFFFFFFFFFFFFF MUL NOT AND SWAP1 DUP4 PUSH20 0xFFFFFFFFFFFFFFFFFFFFFFFFFFFFFFFFFFFFFFFF AND MUL OR SWAP1 SSTORE POP POP JUMP JUMPDEST PUSH1 0x60 DUP4 ISZERO PUSH2 0x793 JUMPI DUP3 SWAP1 POP PUSH2 0x7E3 JUMP JUMPDEST PUSH1 0x0 DUP4 MLOAD GT ISZERO PUSH2 0x7A6 JUMPI DUP3 MLOAD DUP1 DUP5 PUSH1 0x20 ADD REVERT JUMPDEST DUP2 PUSH1 0x40 MLOAD PUSH32 0x8C379A000000000000000000000000000000000000000000000000000000000 DUP2 MSTORE PUSH1 0x4 ADD PUSH2 0x7DA SWAP2 SWAP1 PUSH2 0xAFB JUMP JUMPDEST PUSH1 0x40 MLOAD DUP1 SWAP2 SUB SWAP1 REVERT JUMPDEST SWAP4 SWAP3 POP POP POP JUMP JUMPDEST PUSH2 0x7F3 DUP2 PUSH2 0x386 JUMP JUMPDEST PUSH2 0x832 JUMPI PUSH1 0x40 MLOAD PUSH32 0x8C379A000000000000000000000000000000000000000000000000000000000 DUP2 MSTORE PUSH1 0x4 ADD PUSH2 0x829 SWAP1 PUSH2 0xB3D JUMP JUMPDEST PUSH1 0x40 MLOAD DUP1 SWAP2 SUB SWAP1 REVERT JUMPDEST DUP1 PUSH2 0x85F PUSH32 0x360894A13BA1A3210667C828492DB98DCA3E2076CC3735A920A3CA505D382BBC PUSH1 0x0 SHL PUSH2 0x37C JUMP JUMPDEST PUSH1 0x0 ADD PUSH1 0x0 PUSH2 0x100 EXP DUP2 SLOAD DUP2 PUSH20 0xFFFFFFFFFFFFFFFFFFFFFFFFFFFFFFFFFFFFFFFF MUL NOT AND SWAP1 DUP4 PUSH20 0xFFFFFFFFFFFFFFFFFFFFFFFFFFFFFFFFFFFFFFFF AND MUL OR SWAP1 SSTORE POP POP JUMP JUMPDEST PUSH1 0x0 DUP2 CALLDATALOAD SWAP1 POP PUSH2 0x8B2 DUP2 PUSH2 0xDC0 JUMP JUMPDEST SWAP3 SWAP2 POP POP JUMP JUMPDEST PUSH1 0x0 DUP1 DUP4 PUSH1 0x1F DUP5 ADD SLT PUSH2 0x8CE JUMPI PUSH2 0x8CD PUSH2 0xC39 JUMP JUMPDEST JUMPDEST DUP3 CALLDATALOAD SWAP1 POP PUSH8 0xFFFFFFFFFFFFFFFF DUP2 GT ISZERO PUSH2 0x8EB JUMPI PUSH2 0x8EA PUSH2 0xC34 JUMP JUMPDEST JUMPDEST PUSH1 0x20 DUP4 ADD SWAP2 POP DUP4 PUSH1 0x1 DUP3 MUL DUP4 ADD GT ISZERO PUSH2 0x907 JUMPI PUSH2 0x906 PUSH2 0xC3E JUMP JUMPDEST JUMPDEST SWAP3 POP SWAP3 SWAP1 POP JUMP JUMPDEST PUSH1 0x0 PUSH1 0x20 DUP3 DUP5 SUB SLT ISZERO PUSH2 0x924 JUMPI PUSH2 0x923 PUSH2 0xC48 JUMP JUMPDEST JUMPDEST PUSH1 0x0 PUSH2 0x932 DUP5 DUP3 DUP6 ADD PUSH2 0x8A3 JUMP JUMPDEST SWAP2 POP POP SWAP3 SWAP2 POP POP JUMP JUMPDEST PUSH1 0x0 DUP1 PUSH1 0x0 PUSH1 0x40 DUP5 DUP7 SUB SLT ISZERO PUSH2 0x954 JUMPI PUSH2 0x953 PUSH2 0xC48 JUMP JUMPDEST JUMPDEST PUSH1 0x0 PUSH2 0x962 DUP7 DUP3 DUP8 ADD PUSH2 0x8A3 JUMP JUMPDEST SWAP4 POP POP PUSH1 0x20 DUP5 ADD CALLDATALOAD PUSH8 0xFFFFFFFFFFFFFFFF DUP2 GT ISZERO PUSH2 0x983 JUMPI PUSH2 0x982 PUSH2 0xC43 JUMP JUMPDEST JUMPDEST PUSH2 0x98F DUP7 DUP3 DUP8 ADD PUSH2 0x8B8 JUMP JUMPDEST SWAP3 POP SWAP3 POP POP SWAP3 POP SWAP3 POP SWAP3 JUMP JUMPDEST PUSH2 0x9A4 DUP2 PUSH2 0xBCF JUMP JUMPDEST DUP3 MSTORE POP POP JUMP JUMPDEST PUSH1 0x0 PUSH2 0x9B5 DUP3 PUSH2 0xB9D JUMP JUMPDEST PUSH2 0x9BF DUP2 DUP6 PUSH2 0xBB3 JUMP JUMPDEST SWAP4 POP PUSH2 0x9CF DUP2 DUP6 PUSH1 0x20 DUP7 ADD PUSH2 0xC01 JUMP JUMPDEST DUP1 DUP5 ADD SWAP2 POP POP SWAP3 SWAP2 POP POP JUMP JUMPDEST PUSH1 0x0 PUSH2 0x9E6 DUP3 PUSH2 0xBA8 JUMP JUMPDEST PUSH2 0x9F0 DUP2 DUP6 PUSH2 0xBBE JUMP JUMPDEST SWAP4 POP PUSH2 0xA00 DUP2 DUP6 PUSH1 0x20 DUP7 ADD PUSH2 0xC01 JUMP JUMPDEST PUSH2 0xA09 DUP2 PUSH2 0xC4D JUMP JUMPDEST DUP5 ADD SWAP2 POP POP SWAP3 SWAP2 POP POP JUMP JUMPDEST PUSH1 0x0 PUSH2 0xA21 PUSH1 0x26 DUP4 PUSH2 0xBBE JUMP JUMPDEST SWAP2 POP PUSH2 0xA2C DUP3 PUSH2 0xC5E JUMP JUMPDEST PUSH1 0x40 DUP3 ADD SWAP1 POP SWAP2 SWAP1 POP JUMP JUMPDEST PUSH1 0x0 PUSH2 0xA44 PUSH1 0x2D DUP4 PUSH2 0xBBE JUMP JUMPDEST SWAP2 POP PUSH2 0xA4F DUP3 PUSH2 0xCAD JUMP JUMPDEST PUSH1 0x40 DUP3 ADD SWAP1 POP SWAP2 SWAP1 POP JUMP JUMPDEST PUSH1 0x0 PUSH2 0xA67 PUSH1 0x26 DUP4 PUSH2 0xBBE JUMP JUMPDEST SWAP2 POP PUSH2 0xA72 DUP3 PUSH2 0xCFC JUMP JUMPDEST PUSH1 0x40 DUP3 ADD SWAP1 POP SWAP2 SWAP1 POP JUMP JUMPDEST PUSH1 0x0 PUSH2 0xA8A PUSH1 0x42 DUP4 PUSH2 0xBBE JUMP JUMPDEST SWAP2 POP PUSH2 0xA95 DUP3 PUSH2 0xD4B JUMP JUMPDEST PUSH1 0x60 DUP3 ADD SWAP1 POP SWAP2 SWAP1 POP JUMP JUMPDEST PUSH1 0x0 PUSH2 0xAAC DUP3 DUP5 PUSH2 0x9AA JUMP JUMPDEST SWAP2 POP DUP2 SWAP1 POP SWAP3 SWAP2 POP POP JUMP JUMPDEST PUSH1 0x0 PUSH1 0x20 DUP3 ADD SWAP1 POP PUSH2 0xACC PUSH1 0x0 DUP4 ADD DUP5 PUSH2 0x99B JUMP JUMPDEST SWAP3 SWAP2 POP POP JUMP JUMPDEST PUSH1 0x0 PUSH1 0x40 DUP3 ADD SWAP1 POP PUSH2 0xAE7 PUSH1 0x0 DUP4 ADD DUP6 PUSH2 0x99B JUMP JUMPDEST PUSH2 0xAF4 PUSH1 0x20 DUP4 ADD DUP5 PUSH2 0x99B JUMP JUMPDEST SWAP4 SWAP3 POP POP POP JUMP JUMPDEST PUSH1 0x0 PUSH1 0x20 DUP3 ADD SWAP1 POP DUP2 DUP2 SUB PUSH1 0x0 DUP4 ADD MSTORE PUSH2 0xB15 DUP2 DUP5 PUSH2 0x9DB JUMP JUMPDEST SWAP1 POP SWAP3 SWAP2 POP POP JUMP JUMPDEST PUSH1 0x0 PUSH1 0x20 DUP3 ADD SWAP1 POP DUP2 DUP2 SUB PUSH1 0x0 DUP4 ADD MSTORE PUSH2 0xB36 DUP2 PUSH2 0xA14 JUMP JUMPDEST SWAP1 POP SWAP2 SWAP1 POP JUMP JUMPDEST PUSH1 0x0 PUSH1 0x20 DUP3 ADD SWAP1 POP DUP2 DUP2 SUB PUSH1 0x0 DUP4 ADD MSTORE PUSH2 0xB56 DUP2 PUSH2 0xA37 JUMP JUMPDEST SWAP1 POP SWAP2 SWAP1 POP JUMP JUMPDEST PUSH1 0x0 PUSH1 0x20 DUP3 ADD SWAP1 POP DUP2 DUP2 SUB PUSH1 0x0 DUP4 ADD MSTORE PUSH2 0xB76 DUP2 PUSH2 0xA5A JUMP JUMPDEST SWAP1 POP SWAP2 SWAP1 POP JUMP JUMPDEST PUSH1 0x0 PUSH1 0x20 DUP3 ADD SWAP1 POP DUP2 DUP2 SUB PUSH1 0x0 DUP4 ADD MSTORE PUSH2 0xB96 DUP2 PUSH2 0xA7D JUMP JUMPDEST SWAP1 POP SWAP2 SWAP1 POP JUMP JUMPDEST PUSH1 0x0 DUP2 MLOAD SWAP1 POP SWAP2 SWAP1 POP JUMP JUMPDEST PUSH1 0x0 DUP2 MLOAD SWAP1 POP SWAP2 SWAP1 POP JUMP JUMPDEST PUSH1 0x0 DUP2 SWAP1 POP SWAP3 SWAP2 POP POP JUMP JUMPDEST PUSH1 0x0 DUP3 DUP3 MSTORE PUSH1 0x20 DUP3 ADD SWAP1 POP SWAP3 SWAP2 POP POP JUMP JUMPDEST PUSH1 0x0 PUSH2 0xBDA DUP3 PUSH2 0xBE1 JUMP JUMPDEST SWAP1 POP SWAP2 SWAP1 POP JUMP JUMPDEST PUSH1 0x0 PUSH20 0xFFFFFFFFFFFFFFFFFFFFFFFFFFFFFFFFFFFFFFFF DUP3 AND SWAP1 POP SWAP2 SWAP1 POP JUMP JUMPDEST PUSH1 0x0 JUMPDEST DUP4 DUP2 LT ISZERO PUSH2 0xC1F JUMPI DUP1 DUP3 ADD MLOAD DUP2 DUP5 ADD MSTORE PUSH1 0x20 DUP2 ADD SWAP1 POP PUSH2 0xC04 JUMP JUMPDEST DUP4 DUP2 GT ISZERO PUSH2 0xC2E JUMPI PUSH1 0x0 DUP5 DUP5 ADD MSTORE JUMPDEST POP POP POP POP JUMP JUMPDEST PUSH1 0x0 DUP1 REVERT JUMPDEST PUSH1 0x0 DUP1 REVERT JUMPDEST PUSH1 0x0 DUP1 REVERT JUMPDEST PUSH1 0x0 DUP1 REVERT JUMPDEST PUSH1 0x0 DUP1 REVERT JUMPDEST PUSH1 0x0 PUSH1 0x1F NOT PUSH1 0x1F DUP4 ADD AND SWAP1 POP SWAP2 SWAP1 POP JUMP JUMPDEST PUSH32 0x455243313936373A206E65772061646D696E20697320746865207A65726F2061 PUSH1 0x0 DUP3 ADD MSTORE PUSH32 0x6464726573730000000000000000000000000000000000000000000000000000 PUSH1 0x20 DUP3 ADD MSTORE POP JUMP JUMPDEST PUSH32 0x455243313936373A206E657720696D706C656D656E746174696F6E206973206E PUSH1 0x0 DUP3 ADD MSTORE PUSH32 0x6F74206120636F6E747261637400000000000000000000000000000000000000 PUSH1 0x20 DUP3 ADD MSTORE POP JUMP JUMPDEST PUSH32 0x416464726573733A2064656C65676174652063616C6C20746F206E6F6E2D636F PUSH1 0x0 DUP3 ADD MSTORE PUSH32 0x6E74726163740000000000000000000000000000000000000000000000000000 PUSH1 0x20 DUP3 ADD MSTORE POP JUMP JUMPDEST PUSH32 0x5472616E73706172656E745570677261646561626C6550726F78793A2061646D PUSH1 0x0 DUP3 ADD MSTORE PUSH32 0x696E2063616E6E6F742066616C6C6261636B20746F2070726F78792074617267 PUSH1 0x20 DUP3 ADD MSTORE PUSH32 0x6574000000000000000000000000000000000000000000000000000000000000 PUSH1 0x40 DUP3 ADD MSTORE POP JUMP JUMPDEST PUSH2 0xDC9 DUP2 PUSH2 0xBCF JUMP JUMPDEST DUP2 EQ PUSH2 0xDD4 JUMPI PUSH1 0x0 DUP1 REVERT JUMPDEST POP JUMP INVALID COINBASE PUSH5 0x6472657373 GASPRICE KECCAK256 PUSH13 0x6F772D6C6576656C2064656C65 PUSH8 0x6174652063616C6C KECCAK256 PUSH7 0x61696C6564A264 PUSH10 0x70667358221220A9C081 CREATE 0x2C CALLDATACOPY PUSH31 0x24FA836565853F0975FC8EBCC351E543C07074C607AAFD6DB764736F6C6343 STOP ADDMOD SMOD STOP CALLER COINBASE PUSH5 0x6472657373 GASPRICE KECCAK256 PUSH13 0x6F772D6C6576656C2064656C65 PUSH8 0x6174652063616C6C KECCAK256 PUSH7 0x61696C65640000 "},"gasEstimates":{"creation":{"codeDepositCost":"727200","executionCost":"infinite","totalCost":"infinite"},"external":{"":"infinite","admin()":"infinite","changeAdmin(address)":"infinite","implementation()":"infinite","upgradeTo(address)":"infinite","upgradeToAndCall(address,bytes)":"infinite"},"internal":{"_admin()":"infinite","_beforeFallback()":"infinite"}},"methodIdentifiers":{"admin()":"f851a440","changeAdmin(address)":"8f283970","implementation()":"5c60da1b","upgradeTo(address)":"3659cfe6","upgradeToAndCall(address,bytes)":"4f1ef286"}},"storageLayout":{"storage":[],"types":null},"userdoc":{"kind":"user","methods":{},"version":1}}}}