{
  "_format": "hh-sol-artifact-1",
  "contractName": "TransparentUpgradeableProxy",
  "sourceName": "@openzeppelin/contracts/proxy/transparent/TransparentUpgradeableProxy.sol",
  "abi": [
    {
      "inputs": [
        {
          "internalType": "address",
          "name": "_logic",
          "type": "address"
        },
        {
          "internalType": "address",
          "name": "admin_",
          "type": "address"
        },
        {
          "internalType": "bytes",
          "name": "_data",
          "type": "bytes"
        }
      ],
      "stateMutability": "payable",
      "type": "constructor"
    },
    {
      "anonymous": false,
      "inputs": [
        {
          "indexed": false,
          "internalType": "address",
          "name": "previousAdmin",
          "type": "address"
        },
        {
          "indexed": false,
          "internalType": "address",
          "name": "newAdmin",
          "type": "address"
        }
      ],
      "name": "AdminChanged",
      "type": "event"
    },
    {
      "anonymous": false,
      "inputs": [
        {
          "indexed": true,
          "internalType": "address",
          "name": "beacon",
          "type": "address"
        }
      ],
      "name": "BeaconUpgraded",
      "type": "event"
    },
    {
      "anonymous": false,
      "inputs": [
        {
          "indexed": true,
          "internalType": "address",
          "name": "implementation",
          "type": "address"
        }
      ],
      "name": "Upgraded",
      "type": "event"
    },
    {
      "stateMutability": "payable",
      "type": "fallback"
    },
    {
      "inputs": [],
      "name": "admin",
      "outputs": [
        {
          "internalType": "address",
          "name": "admin_",
          "type": "address"
        }
      ],
      "stateMutability": "nonpayable",
      "type": "function"
    },
    {
      "inputs": [
        {
          "internalType": "address",
          "name": "newAdmin",
          "type": "address"
        }
      ],
      "name": "changeAdmin",
      "outputs": [],
      "stateMutability": "nonpayable",
      "type": "function"
    },
    {
      "inputs": [],
      "name": "implementation",
      "outputs": [
        {
          "internalType": "address",
          "name": "implementation_",
          "type": "address"
        }
      ],
      "stateMutability": "nonpayable",
      "type": "function"
    },
    {
      "inputs": [
        {
          "internalType": "address",
          "name": "newImplementation",
          "type": "address"
        }
      ],
      "name": "upgradeTo",
      "outputs": [],
      "stateMutability": "nonpayable",
      "type": "function"
    },
    {
      "inputs": [
        {
          "internalType": "address",
          "name": "newImplementation",
          "type": "address"
        },
        {
          "internalType": "bytes",
          "name": "data",
          "type": "bytes"
        }
      ],
      "name": "upgradeToAndCall",
      "outputs": [],
      "stateMutability": "payable",
      "type": "function"
    },
    {
      "stateMutability": "payable",
      "type": "receive"
    }
  ],
  "bytecode": "0x608060405260405162001906380380620019068339818101604052810190620000299190620005c6565b82816200003f828260006200005b60201b60201c565b505062000052826200009e60201b60201c565b50505062000a9b565b6200006c83620000fc60201b60201c565b6000825111806200007a5750805b1562000099576200009783836200015360201b6200034f1760201c565b505b505050565b7f7e644d79422f17c01e4894b5f4f588d331ebfa28653d42ae832dc59e38c9798f620000cf6200018960201b60201c565b82604051620000e092919062000758565b60405180910390a1620000f981620001ed60201b60201c565b50565b6200010d81620002de60201b60201c565b8073ffffffffffffffffffffffffffffffffffffffff167fbc7cd75a20ee27fd9adebab32041f755214dbc6bffa90cc0225b39da2e5c2d3b60405160405180910390a250565b6060620001818383604051806060016040528060278152602001620018df60279139620003b460201b60201c565b905092915050565b6000620001c47fb53127684a568b3173ae13b9f8a6016e243e63b6e8ee1178d6a717850b5d610360001b6200049860201b6200037c1760201c565b60000160009054906101000a900473ffffffffffffffffffffffffffffffffffffffff16905090565b600073ffffffffffffffffffffffffffffffffffffffff168173ffffffffffffffffffffffffffffffffffffffff16141562000260576040517f08c379a00000000000000000000000000000000000000000000000000000000081526004016200025790620007a9565b60405180910390fd5b806200029a7fb53127684a568b3173ae13b9f8a6016e243e63b6e8ee1178d6a717850b5d610360001b6200049860201b6200037c1760201c565b60000160006101000a81548173ffffffffffffffffffffffffffffffffffffffff021916908373ffffffffffffffffffffffffffffffffffffffff16021790555050565b620002f481620004a260201b620003861760201c565b62000336576040517f08c379a00000000000000000000000000000000000000000000000000000000081526004016200032d90620007cb565b60405180910390fd5b80620003707f360894a13ba1a3210667c828492db98dca3e2076cc3735a920a3ca505d382bbc60001b6200049860201b6200037c1760201c565b60000160006101000a81548173ffffffffffffffffffffffffffffffffffffffff021916908373ffffffffffffffffffffffffffffffffffffffff16021790555050565b6060620003c784620004a260201b60201c565b62000409576040517f08c379a00000000000000000000000000000000000000000000000000000000081526004016200040090620007ed565b60405180910390fd5b6000808573ffffffffffffffffffffffffffffffffffffffff16856040516200043391906200073f565b600060405180830381855af49150503d806000811462000470576040519150601f19603f3d011682016040523d82523d6000602084013e62000475565b606091505b50915091506200048d828286620004c560201b60201c565b925050509392505050565b6000819050919050565b6000808273ffffffffffffffffffffffffffffffffffffffff163b119050919050565b60608315620004d7578290506200052a565b600083511115620004eb5782518084602001fd5b816040517f08c379a000000000000000000000000000000000000000000000000000000000815260040162000521919062000785565b60405180910390fd5b9392505050565b600062000548620005428462000838565b6200080f565b90508281526020810184848401111562000567576200056662000974565b5b62000574848285620008d4565b509392505050565b6000815190506200058d8162000a81565b92915050565b600082601f830112620005ab57620005aa6200096f565b5b8151620005bd84826020860162000531565b91505092915050565b600080600060608486031215620005e257620005e16200097e565b5b6000620005f2868287016200057c565b935050602062000605868287016200057c565b925050604084015167ffffffffffffffff81111562000629576200062862000979565b5b620006378682870162000593565b9150509250925092565b6200064c81620008a0565b82525050565b60006200065f826200086e565b6200066b818562000884565b93506200067d818560208601620008d4565b80840191505092915050565b6000620006968262000879565b620006a281856200088f565b9350620006b4818560208601620008d4565b620006bf8162000983565b840191505092915050565b6000620006d96026836200088f565b9150620006e68262000994565b604082019050919050565b600062000700602d836200088f565b91506200070d82620009e3565b604082019050919050565b6000620007276026836200088f565b9150620007348262000a32565b604082019050919050565b60006200074d828462000652565b915081905092915050565b60006040820190506200076f600083018562000641565b6200077e602083018462000641565b9392505050565b60006020820190508181036000830152620007a1818462000689565b905092915050565b60006020820190508181036000830152620007c481620006ca565b9050919050565b60006020820190508181036000830152620007e681620006f1565b9050919050565b60006020820190508181036000830152620008088162000718565b9050919050565b60006200081b6200082e565b90506200082982826200090a565b919050565b6000604051905090565b600067ffffffffffffffff82111562000856576200085562000940565b5b620008618262000983565b9050602081019050919050565b600081519050919050565b600081519050919050565b600081905092915050565b600082825260208201905092915050565b6000620008ad82620008b4565b9050919050565b600073ffffffffffffffffffffffffffffffffffffffff82169050919050565b60005b83811015620008f4578082015181840152602081019050620008d7565b8381111562000904576000848401525b50505050565b620009158262000983565b810181811067ffffffffffffffff8211171562000937576200093662000940565b5b80604052505050565b7f4e487b7100000000000000000000000000000000000000000000000000000000600052604160045260246000fd5b600080fd5b600080fd5b600080fd5b600080fd5b6000601f19601f8301169050919050565b7f455243313936373a206e65772061646d696e20697320746865207a65726f206160008201527f6464726573730000000000000000000000000000000000000000000000000000602082015250565b7f455243313936373a206e657720696d706c656d656e746174696f6e206973206e60008201527f6f74206120636f6e747261637400000000000000000000000000000000000000602082015250565b7f416464726573733a2064656c65676174652063616c6c20746f206e6f6e2d636f60008201527f6e74726163740000000000000000000000000000000000000000000000000000602082015250565b62000a8c81620008a0565b811462000a9857600080fd5b50565b610e348062000aab6000396000f3fe60806040526004361061004e5760003560e01c80633659cfe6146100675780634f1ef286146100905780635c60da1b146100ac5780638f283970146100d7578063f851a440146101005761005d565b3661005d5761005b61012b565b005b61006561012b565b005b34801561007357600080fd5b5061008e6004803603810190610089919061090e565b610145565b005b6100aa60048036038101906100a5919061093b565b6101ac565b005b3480156100b857600080fd5b506100c161024a565b6040516100ce9190610ab7565b60405180910390f35b3480156100e357600080fd5b506100fe60048036038101906100f9919061090e565b6102a2565b005b34801561010c57600080fd5b506101156102f7565b6040516101229190610ab7565b60405180910390f35b6101336103a9565b61014361013e610429565b610438565b565b61014d61045e565b73ffffffffffffffffffffffffffffffffffffffff163373ffffffffffffffffffffffffffffffffffffffff1614156101a05761019b816040518060200160405280600081525060006104b5565b6101a9565b6101a861012b565b5b50565b6101b461045e565b73ffffffffffffffffffffffffffffffffffffffff163373ffffffffffffffffffffffffffffffffffffffff16141561023c576102378383838080601f016020809104026020016040519081016040528093929190818152602001838380828437600081840152601f19601f8201169050808301925050505050505060016104b5565b610245565b61024461012b565b5b505050565b600061025461045e565b73ffffffffffffffffffffffffffffffffffffffff163373ffffffffffffffffffffffffffffffffffffffff1614156102965761028f610429565b905061029f565b61029e61012b565b5b90565b6102aa61045e565b73ffffffffffffffffffffffffffffffffffffffff163373ffffffffffffffffffffffffffffffffffffffff1614156102eb576102e6816104e1565b6102f4565b6102f361012b565b5b50565b600061030161045e565b73ffffffffffffffffffffffffffffffffffffffff163373ffffffffffffffffffffffffffffffffffffffff1614156103435761033c61045e565b905061034c565b61034b61012b565b5b90565b60606103748383604051806060016040528060278152602001610dd86027913961052d565b905092915050565b6000819050919050565b6000808273ffffffffffffffffffffffffffffffffffffffff163b119050919050565b6103b161045e565b73ffffffffffffffffffffffffffffffffffffffff163373ffffffffffffffffffffffffffffffffffffffff16141561041f576040517f08c379a000000000000000000000000000000000000000000000000000000000815260040161041690610b7d565b60405180910390fd5b6104276105fa565b565b60006104336105fc565b905090565b3660008037600080366000845af43d6000803e8060008114610459573d6000f35b3d6000fd5b600061048c7fb53127684a568b3173ae13b9f8a6016e243e63b6e8ee1178d6a717850b5d610360001b61037c565b60000160009054906101000a900473ffffffffffffffffffffffffffffffffffffffff16905090565b6104be83610653565b6000825111806104cb5750805b156104dc576104da838361034f565b505b505050565b7f7e644d79422f17c01e4894b5f4f588d331ebfa28653d42ae832dc59e38c9798f61050a61045e565b82604051610519929190610ad2565b60405180910390a161052a816106a2565b50565b606061053884610386565b610577576040517f08c379a000000000000000000000000000000000000000000000000000000000815260040161056e90610b5d565b60405180910390fd5b6000808573ffffffffffffffffffffffffffffffffffffffff168560405161059f9190610aa0565b600060405180830381855af49150503d80600081146105da576040519150601f19603f3d011682016040523d82523d6000602084013e6105df565b606091505b50915091506105ef828286610783565b925050509392505050565b565b600061062a7f360894a13ba1a3210667c828492db98dca3e2076cc3735a920a3ca505d382bbc60001b61037c565b60000160009054906101000a900473ffffffffffffffffffffffffffffffffffffffff16905090565b61065c816107ea565b8073ffffffffffffffffffffffffffffffffffffffff167fbc7cd75a20ee27fd9adebab32041f755214dbc6bffa90cc0225b39da2e5c2d3b60405160405180910390a250565b600073ffffffffffffffffffffffffffffffffffffffff168173ffffffffffffffffffffffffffffffffffffffff161415610712576040517f08c379a000000000000000000000000000000000000000000000000000000000815260040161070990610b1d565b60405180910390fd5b8061073f7fb53127684a568b3173ae13b9f8a6016e243e63b6e8ee1178d6a717850b5d610360001b61037c565b60000160006101000a81548173ffffffffffffffffffffffffffffffffffffffff021916908373ffffffffffffffffffffffffffffffffffffffff16021790555050565b60608315610793578290506107e3565b6000835111156107a65782518084602001fd5b816040517f08c379a00000000000000000000000000000000000000000000000000000000081526004016107da9190610afb565b60405180910390fd5b9392505050565b6107f381610386565b610832576040517f08c379a000000000000000000000000000000000000000000000000000000000815260040161082990610b3d565b60405180910390fd5b8061085f7f360894a13ba1a3210667c828492db98dca3e2076cc3735a920a3ca505d382bbc60001b61037c565b60000160006101000a81548173ffffffffffffffffffffffffffffffffffffffff021916908373ffffffffffffffffffffffffffffffffffffffff16021790555050565b6000813590506108b281610dc0565b92915050565b60008083601f8401126108ce576108cd610c39565b5b8235905067ffffffffffffffff8111156108eb576108ea610c34565b5b60208301915083600182028301111561090757610906610c3e565b5b9250929050565b60006020828403121561092457610923610c48565b5b6000610932848285016108a3565b91505092915050565b60008060006040848603121561095457610953610c48565b5b6000610962868287016108a3565b935050602084013567ffffffffffffffff81111561098357610982610c43565b5b61098f868287016108b8565b92509250509250925092565b6109a481610bcf565b82525050565b60006109b582610b9d565b6109bf8185610bb3565b93506109cf818560208601610c01565b80840191505092915050565b60006109e682610ba8565b6109f08185610bbe565b9350610a00818560208601610c01565b610a0981610c4d565b840191505092915050565b6000610a21602683610bbe565b9150610a2c82610c5e565b604082019050919050565b6000610a44602d83610bbe565b9150610a4f82610cad565b604082019050919050565b6000610a67602683610bbe565b9150610a7282610cfc565b604082019050919050565b6000610a8a604283610bbe565b9150610a9582610d4b565b606082019050919050565b6000610aac82846109aa565b915081905092915050565b6000602082019050610acc600083018461099b565b92915050565b6000604082019050610ae7600083018561099b565b610af4602083018461099b565b9392505050565b60006020820190508181036000830152610b1581846109db565b905092915050565b60006020820190508181036000830152610b3681610a14565b9050919050565b60006020820190508181036000830152610b5681610a37565b9050919050565b60006020820190508181036000830152610b7681610a5a565b9050919050565b60006020820190508181036000830152610b9681610a7d565b9050919050565b600081519050919050565b600081519050919050565b600081905092915050565b600082825260208201905092915050565b6000610bda82610be1565b9050919050565b600073ffffffffffffffffffffffffffffffffffffffff82169050919050565b60005b83811015610c1f578082015181840152602081019050610c04565b83811115610c2e576000848401525b50505050565b600080fd5b600080fd5b600080fd5b600080fd5b600080fd5b6000601f19601f8301169050919050565b7f455243313936373a206e65772061646d696e20697320746865207a65726f206160008201527f6464726573730000000000000000000000000000000000000000000000000000602082015250565b7f455243313936373a206e657720696d706c656d656e746174696f6e206973206e60008201527f6f74206120636f6e747261637400000000000000000000000000000000000000602082015250565b7f416464726573733a2064656c65676174652063616c6c20746f206e6f6e2d636f60008201527f6e74726163740000000000000000000000000000000000000000000000000000602082015250565b7f5472616e73706172656e745570677261646561626c6550726f78793a2061646d60008201527f696e2063616e6e6f742066616c6c6261636b20746f2070726f7879207461726760208201527f6574000000000000000000000000000000000000000000000000000000000000604082015250565b610dc981610bcf565b8114610dd457600080fd5b5056fe416464726573733a206c6f772d6c6576656c2064656c65676174652063616c6c206661696c6564a2646970667358221220a9c081f02c377e24fa836565853f0975fc8ebcc351e543c07074c607aafd6db764736f6c63430008070033416464726573733a206c6f772d6c6576656c2064656c65676174652063616c6c206661696c6564",
  "linkReferences": {},
  "deployedLinkReferences": {}
}