{
  "_format": "hh-sol-artifact-1",
  "contractName": "ProxyAdmin",
  "sourceName": "@openzeppelin/contracts/proxy/transparent/ProxyAdmin.sol",
  "abi": [
    {
      "anonymous": false,
      "inputs": [
        {
          "indexed": true,
          "internalType": "address",
          "name": "previousOwner",
          "type": "address"
        },
        {
          "indexed": true,
          "internalType": "address",
          "name": "newOwner",
          "type": "address"
        }
      ],
      "name": "OwnershipTransferred",
      "type": "event"
    },
    {
      "inputs": [
        {
          "internalType": "contract TransparentUpgradeableProxy",
          "name": "proxy",
          "type": "address"
        },
        {
          "internalType": "address",
          "name": "newAdmin",
          "type": "address"
        }
      ],
      "name": "changeProxyAdmin",
      "outputs": [],
      "stateMutability": "nonpayable",
      "type": "function"
    },
    {
      "inputs": [
        {
          "internalType": "contract TransparentUpgradeableProxy",
          "name": "proxy",
          "type": "address"
        }
      ],
      "name": "getProxyAdmin",
      "outputs": [
        {
          "internalType": "address",
          "name": "",
          "type": "address"
        }
      ],
      "stateMutability": "view",
      "type": "function"
    },
    {
      "inputs": [
        {
          "internalType": "contract TransparentUpgradeableProxy",
          "name": "proxy",
          "type": "address"
        }
      ],
      "name": "getProxyImplementation",
      "outputs": [
        {
          "internalType": "address",
          "name": "",
          "type": "address"
        }
      ],
      "stateMutability": "view",
      "type": "function"
    },
    {
      "inputs": [],
      "name": "owner",
      "outputs": [
        {
          "internalType": "address",
          "name": "",
          "type": "address"
        }
      ],
      "stateMutability": "view",
      "type": "function"
    },
    {
      "inputs": [],
      "name": "renounceOwnership",
      "outputs": [],
      "stateMutability": "nonpayable",
      "type": "function"
    },
    {
      "inputs": [
        {
          "internalType": "address",
          "name": "newOwner",
          "type": "address"
        }
      ],
      "name": "transferOwnership",
      "outputs": [],
      "stateMutability": "nonpayable",
      "type": "function"
    },
    {
      "inputs": [
        {
          "internalType": "contract TransparentUpgradeableProxy",
          "name": "proxy",
          "type": "address"
        },
        {
          "internalType": "address",
          "name": "implementation",
          "type": "address"
        }
      ],
      "name": "upgrade",
      "outputs": [],
      "stateMutability": "nonpayable",
      "type": "function"
    },
    {
      "inputs": [
        {
          "internalType": "contract TransparentUpgradeableProxy",
          "name": "proxy",
          "type": "address"
        },
        {
          "internalType": "address",
          "name": "implementation",
          "type": "address"
        },
        {
          "internalType": "bytes",
          "name": "data",
          "type": "bytes"
        }
      ],
      "name": "upgradeAndCall",
      "outputs": [],
      "stateMutability": "payable",
      "type": "function"
    }
  ],
  "bytecode": "0x608060405234801561001057600080fd5b5061002d61002261003260201b60201c565b61003a60201b60201c565b6100fe565b600033905090565b60008060009054906101000a900473ffffffffffffffffffffffffffffffffffffffff169050816000806101000a81548173ffffffffffffffffffffffffffffffffffffffff021916908373ffffffffffffffffffffffffffffffffffffffff1602179055508173ffffffffffffffffffffffffffffffffffffffff168173ffffffffffffffffffffffffffffffffffffffff167f8be0079c531659141344cd1fd0a4f28419497f9722a3daafe3b4186f6b6457e060405160405180910390a35050565b610ccd8061010d6000396000f3fe60806040526004361061007b5760003560e01c80639623609d1161004e5780639623609d1461012857806399a88ec414610144578063f2fde38b1461016d578063f3b7dead146101965761007b565b8063204e1c7a14610080578063715018a6146100bd5780637eff275e146100d45780638da5cb5b146100fd575b600080fd5b34801561008c57600080fd5b506100a760048036038101906100a29190610778565b6101d3565b6040516100b49190610952565b60405180910390f35b3480156100c957600080fd5b506100d2610267565b005b3480156100e057600080fd5b506100fb60048036038101906100f691906107a5565b61027b565b005b34801561010957600080fd5b506101126102f2565b60405161011f9190610952565b60405180910390f35b610142600480360381019061013d91906107e5565b61031b565b005b34801561015057600080fd5b5061016b600480360381019061016691906107a5565b610396565b005b34801561017957600080fd5b50610194600480360381019061018f919061071e565b61040d565b005b3480156101a257600080fd5b506101bd60048036038101906101b89190610778565b610491565b6040516101ca9190610952565b60405180910390f35b60008060008373ffffffffffffffffffffffffffffffffffffffff166040516101fb90610928565b600060405180830381855afa9150503d8060008114610236576040519150601f19603f3d011682016040523d82523d6000602084013e61023b565b606091505b50915091508161024a57600080fd5b8080602001905181019061025e919061074b565b92505050919050565b61026f610525565b61027960006105a3565b565b610283610525565b8173ffffffffffffffffffffffffffffffffffffffff16638f283970826040518263ffffffff1660e01b81526004016102bc9190610952565b600060405180830381600087803b1580156102d657600080fd5b505af11580156102ea573d6000803e3d6000fd5b505050505050565b60008060009054906101000a900473ffffffffffffffffffffffffffffffffffffffff16905090565b610323610525565b8273ffffffffffffffffffffffffffffffffffffffff16634f1ef2863484846040518463ffffffff1660e01b815260040161035f92919061096d565b6000604051808303818588803b15801561037857600080fd5b505af115801561038c573d6000803e3d6000fd5b5050505050505050565b61039e610525565b8173ffffffffffffffffffffffffffffffffffffffff16633659cfe6826040518263ffffffff1660e01b81526004016103d79190610952565b600060405180830381600087803b1580156103f157600080fd5b505af1158015610405573d6000803e3d6000fd5b505050505050565b610415610525565b600073ffffffffffffffffffffffffffffffffffffffff168173ffffffffffffffffffffffffffffffffffffffff161415610485576040517f08c379a000000000000000000000000000000000000000000000000000000000815260040161047c9061099d565b60405180910390fd5b61048e816105a3565b50565b60008060008373ffffffffffffffffffffffffffffffffffffffff166040516104b99061093d565b600060405180830381855afa9150503d80600081146104f4576040519150601f19603f3d011682016040523d82523d6000602084013e6104f9565b606091505b50915091508161050857600080fd5b8080602001905181019061051c919061074b565b92505050919050565b61052d610667565b73ffffffffffffffffffffffffffffffffffffffff1661054b6102f2565b73ffffffffffffffffffffffffffffffffffffffff16146105a1576040517f08c379a0000000000000000000000000000000000000000000000000000000008152600401610598906109bd565b60405180910390fd5b565b60008060009054906101000a900473ffffffffffffffffffffffffffffffffffffffff169050816000806101000a81548173ffffffffffffffffffffffffffffffffffffffff021916908373ffffffffffffffffffffffffffffffffffffffff1602179055508173ffffffffffffffffffffffffffffffffffffffff168173ffffffffffffffffffffffffffffffffffffffff167f8be0079c531659141344cd1fd0a4f28419497f9722a3daafe3b4186f6b6457e060405160405180910390a35050565b600033905090565b600061068261067d84610a02565b6109dd565b90508281526020810184848401111561069e5761069d610b68565b5b6106a9848285610ac1565b509392505050565b6000813590506106c081610c52565b92915050565b6000815190506106d581610c69565b92915050565b600082601f8301126106f0576106ef610b63565b5b813561070084826020860161066f565b91505092915050565b60008135905061071881610c80565b92915050565b60006020828403121561073457610733610b72565b5b6000610742848285016106b1565b91505092915050565b60006020828403121561076157610760610b72565b5b600061076f848285016106c6565b91505092915050565b60006020828403121561078e5761078d610b72565b5b600061079c84828501610709565b91505092915050565b600080604083850312156107bc576107bb610b72565b5b60006107ca85828601610709565b92505060206107db858286016106b1565b9150509250929050565b6000806000606084860312156107fe576107fd610b72565b5b600061080c86828701610709565b935050602061081d868287016106b1565b925050604084013567ffffffffffffffff81111561083e5761083d610b6d565b5b61084a868287016106db565b9150509250925092565b61085d81610a6b565b82525050565b600061086e82610a33565b6108788185610a3e565b9350610888818560208601610ad0565b61089181610b77565b840191505092915050565b60006108a9602683610a5a565b91506108b482610b88565b604082019050919050565b60006108cc600483610a4f565b91506108d782610bd7565b600482019050919050565b60006108ef602083610a5a565b91506108fa82610c00565b602082019050919050565b6000610912600483610a4f565b915061091d82610c29565b600482019050919050565b6000610933826108bf565b9150819050919050565b600061094882610905565b9150819050919050565b60006020820190506109676000830184610854565b92915050565b60006040820190506109826000830185610854565b81810360208301526109948184610863565b90509392505050565b600060208201905081810360008301526109b68161089c565b9050919050565b600060208201905081810360008301526109d6816108e2565b9050919050565b60006109e76109f8565b90506109f38282610b03565b919050565b6000604051905090565b600067ffffffffffffffff821115610a1d57610a1c610b34565b5b610a2682610b77565b9050602081019050919050565b600081519050919050565b600082825260208201905092915050565b600081905092915050565b600082825260208201905092915050565b6000610a7682610aa1565b9050919050565b6000610a8882610aa1565b9050919050565b6000610a9a82610a7d565b9050919050565b600073ffffffffffffffffffffffffffffffffffffffff82169050919050565b82818337600083830152505050565b60005b83811015610aee578082015181840152602081019050610ad3565b83811115610afd576000848401525b50505050565b610b0c82610b77565b810181811067ffffffffffffffff82111715610b2b57610b2a610b34565b5b80604052505050565b7f4e487b7100000000000000000000000000000000000000000000000000000000600052604160045260246000fd5b600080fd5b600080fd5b600080fd5b600080fd5b6000601f19601f8301169050919050565b7f4f776e61626c653a206e6577206f776e657220697320746865207a65726f206160008201527f6464726573730000000000000000000000000000000000000000000000000000602082015250565b7f5c60da1b00000000000000000000000000000000000000000000000000000000600082015250565b7f4f776e61626c653a2063616c6c6572206973206e6f7420746865206f776e6572600082015250565b7ff851a44000000000000000000000000000000000000000000000000000000000600082015250565b610c5b81610a6b565b8114610c6657600080fd5b50565b610c7281610a7d565b8114610c7d57600080fd5b50565b610c8981610a8f565b8114610c9457600080fd5b5056fea2646970667358221220b226da561818f8f7c75c2bb6b14d59552cdf1b3f57a7c2d47425383edb468c8364736f6c63430008070033",
  "linkReferences": {},
  "deployedLinkReferences": {}
}